{
  "_format": "hh-sol-artifact-1",
  "contractName": "Token",
  "sourceName": "contracts/Token.sol",
  "abi": [
    {
      "inputs": [],
      "stateMutability": "nonpayable",
      "type": "constructor"
    },
    {
      "inputs": [],
      "name": "admin_HolderOfTokens",
      "outputs": [
        {
          "internalType": "address",
          "name": "",
          "type": "address"
        }
      ],
      "stateMutability": "view",
      "type": "function"
    },
    {
      "inputs": [],
      "name": "getAdminBalance",
      "outputs": [
        {
          "internalType": "uint256",
          "name": "",
          "type": "uint256"
        }
      ],
      "stateMutability": "view",
      "type": "function"
    },
    {
      "inputs": [],
      "name": "getMarketingDepartmentAddress",
      "outputs": [
        {
          "internalType": "address",
          "name": "",
          "type": "address"
        }
      ],
      "stateMutability": "view",
      "type": "function"
    },
    {
      "inputs": [],
      "name": "getMarketingDepartmentBalance",
      "outputs": [
        {
          "internalType": "uint256",
          "name": "",
          "type": "uint256"
        }
      ],
      "stateMutability": "view",
      "type": "function"
    },
    {
      "inputs": [
        {
          "internalType": "address",
          "name": "_staker",
          "type": "address"
        }
      ],
      "name": "getStakeHolderBalance",
      "outputs": [
        {
          "internalType": "uint256",
          "name": "",
          "type": "uint256"
        }
      ],
      "stateMutability": "view",
      "type": "function"
    },
    {
      "inputs": [],
      "name": "initialNumberOfTokens",
      "outputs": [
        {
          "internalType": "uint256",
          "name": "",
          "type": "uint256"
        }
      ],
      "stateMutability": "view",
      "type": "function"
    },
    {
      "inputs": [],
      "name": "marketingDepartment",
      "outputs": [
        {
          "internalType": "address",
          "name": "",
          "type": "address"
        }
      ],
      "stateMutability": "view",
      "type": "function"
    },
    {
      "inputs": [],
      "name": "onSale",
      "outputs": [
        {
          "internalType": "bool",
          "name": "",
          "type": "bool"
        }
      ],
      "stateMutability": "nonpayable",
      "type": "function"
    },
    {
      "inputs": [],
      "name": "pastStakeTime",
      "outputs": [
        {
          "internalType": "uint256",
          "name": "",
          "type": "uint256"
        }
      ],
      "stateMutability": "view",
      "type": "function"
    },
    {
      "inputs": [],
      "name": "sale",
      "outputs": [
        {
          "internalType": "bool",
          "name": "",
          "type": "bool"
        }
      ],
      "stateMutability": "view",
      "type": "function"
    },
    {
      "inputs": [
        {
          "internalType": "address",
          "name": "_marketing",
          "type": "address"
        }
      ],
      "name": "setMarketingDepartmentAddress",
      "outputs": [],
      "stateMutability": "nonpayable",
      "type": "function"
    },
    {
      "inputs": [
        {
          "internalType": "uint256",
          "name": "",
          "type": "uint256"
        }
      ],
      "name": "stakeHolder",
      "outputs": [
        {
          "internalType": "address",
          "name": "",
          "type": "address"
        }
      ],
      "stateMutability": "view",
      "type": "function"
    },
    {
      "inputs": [
        {
          "internalType": "uint256",
          "name": "_amount",
          "type": "uint256"
        },
        {
          "internalType": "address",
          "name": "_staker",
          "type": "address"
        }
      ],
      "name": "stakeToken",
      "outputs": [],
      "stateMutability": "payable",
      "type": "function"
    },
    {
      "inputs": [],
      "name": "tokenName",
      "outputs": [
        {
          "internalType": "string",
          "name": "",
          "type": "string"
        }
      ],
      "stateMutability": "view",
      "type": "function"
    },
    {
      "inputs": [],
      "name": "tokenSymbol",
      "outputs": [
        {
          "internalType": "string",
          "name": "",
          "type": "string"
        }
      ],
      "stateMutability": "view",
      "type": "function"
    },
    {
      "inputs": [
        {
          "internalType": "uint256",
          "name": "_tokens",
          "type": "uint256"
        },
        {
          "internalType": "address",
          "name": "_receiver",
          "type": "address"
        }
      ],
      "name": "transferToken",
      "outputs": [],
      "stateMutability": "payable",
      "type": "function"
    }
  ],
  "bytecode": "0x60806040526161a86000554260035534801561001a57600080fd5b50600054600660003373ffffffffffffffffffffffffffffffffffffffff1673ffffffffffffffffffffffffffffffffffffffff1681526020019081526020016000208190555033600260006101000a81548173ffffffffffffffffffffffffffffffffffffffff021916908373ffffffffffffffffffffffffffffffffffffffff160217905550610fda806100b16000396000f3fe6080604052600436106100f35760003560e01c80638b4a1e921161008a578063b111927b11610059578063b111927b146102fd578063bad425901461033a578063bb61110c14610356578063f40ffcfb14610381576100f3565b80638b4a1e9214610260578063956b26671461028b57806398d16b21146102b65780639ee30600146102e1576100f3565b80635e4ba080116100c65780635e4ba080146101b65780636ad1fe02146101df5780636c02a9311461020a5780637b61c32014610235576100f3565b80631826f744146100f85780632cc2209e14610123578063326687b9146101605780635ca6e8df1461018b575b600080fd5b34801561010457600080fd5b5061010d6103ac565b60405161011a9190610ac4565b60405180910390f35b34801561012f57600080fd5b5061014a60048036038101906101459190610b10565b6103d2565b6040516101579190610b56565b60405180910390f35b34801561016c57600080fd5b5061017561041b565b6040516101829190610b8c565b60405180910390f35b34801561019757600080fd5b506101a061045b565b6040516101ad9190610b56565b60405180910390f35b3480156101c257600080fd5b506101dd60048036038101906101d89190610b10565b6104c4565b005b3480156101eb57600080fd5b506101f4610508565b6040516102019190610b8c565b60405180910390f35b34801561021657600080fd5b5061021f61051b565b60405161022c9190610c40565b60405180910390f35b34801561024157600080fd5b5061024a610554565b6040516102579190610c40565b60405180910390f35b34801561026c57600080fd5b5061027561058d565b6040516102829190610ac4565b60405180910390f35b34801561029757600080fd5b506102a06105b3565b6040516102ad9190610b56565b60405180910390f35b3480156102c257600080fd5b506102cb6105b9565b6040516102d89190610ac4565b60405180910390f35b6102fb60048036038101906102f69190610c8e565b6105e3565b005b34801561030957600080fd5b50610324600480360381019061031f9190610cce565b61076f565b6040516103319190610ac4565b60405180910390f35b610354600480360381019061034f9190610c8e565b6107ae565b005b34801561036257600080fd5b5061036b610a14565b6040516103789190610b56565b60405180910390f35b34801561038d57600080fd5b50610396610a1a565b6040516103a39190610b56565b60405180910390f35b600260009054906101000a900473ffffffffffffffffffffffffffffffffffffffff1681565b6000600760008373ffffffffffffffffffffffffffffffffffffffff1673ffffffffffffffffffffffffffffffffffffffff168152602001908152602001600020549050919050565b6000801515600460009054906101000a900460ff1615151461043c57600080fd5b6001600460006101000a81548160ff0219169083151502179055905090565b600060066000600160009054906101000a900473ffffffffffffffffffffffffffffffffffffffff1673ffffffffffffffffffffffffffffffffffffffff1673ffffffffffffffffffffffffffffffffffffffff16815260200190815260200160002054905090565b80600160006101000a81548173ffffffffffffffffffffffffffffffffffffffff021916908373ffffffffffffffffffffffffffffffffffffffff16021790555050565b600460009054906101000a900460ff1681565b6040518060400160405280600d81526020017f4d792053616c6520546f6b656e0000000000000000000000000000000000000081525081565b6040518060400160405280600481526020017f4d53544e0000000000000000000000000000000000000000000000000000000081525081565b600160009054906101000a900473ffffffffffffffffffffffffffffffffffffffff1681565b60035481565b6000600160009054906101000a900473ffffffffffffffffffffffffffffffffffffffff16905090565b603c600354426105f39190610d2a565b11610633576040517f08c379a000000000000000000000000000000000000000000000000000000000815260040161062a90610daa565b60405180910390fd5b81600760008373ffffffffffffffffffffffffffffffffffffffff1673ffffffffffffffffffffffffffffffffffffffff16815260200190815260200160002060008282546106829190610dca565b925050819055508160066000600260009054906101000a900473ffffffffffffffffffffffffffffffffffffffff1673ffffffffffffffffffffffffffffffffffffffff1673ffffffffffffffffffffffffffffffffffffffff16815260200190815260200160002060008282546106fa9190610dca565b925050819055506005819080600181540180825580915050600190039060005260206000200160009091909190916101000a81548173ffffffffffffffffffffffffffffffffffffffff021916908373ffffffffffffffffffffffffffffffffffffffff160217905550426003819055505050565b6005818154811061077f57600080fd5b906000526020600020016000915054906101000a900473ffffffffffffffffffffffffffffffffffffffff1681565b60011515600460009054906101000a900460ff16151514610804576040517f08c379a00000000000000000000000000000000000000000000000000000000081526004016107fb90610e92565b60405180910390fd5b8160066000600260009054906101000a900473ffffffffffffffffffffffffffffffffffffffff1673ffffffffffffffffffffffffffffffffffffffff1673ffffffffffffffffffffffffffffffffffffffff16815260200190815260200160002054116108a7576040517f08c379a000000000000000000000000000000000000000000000000000000000815260040161089e90610f24565b60405180910390fd5b8160066000600260009054906101000a900473ffffffffffffffffffffffffffffffffffffffff1673ffffffffffffffffffffffffffffffffffffffff1673ffffffffffffffffffffffffffffffffffffffff16815260200190815260200160002060008282546109189190610d2a565b92505081905550600060048361092e9190610f73565b90506000818461093e9190610d2a565b905080600660008573ffffffffffffffffffffffffffffffffffffffff1673ffffffffffffffffffffffffffffffffffffffff168152602001908152602001600020600082825461098f9190610dca565b925050819055508160066000600160009054906101000a900473ffffffffffffffffffffffffffffffffffffffff1673ffffffffffffffffffffffffffffffffffffffff1673ffffffffffffffffffffffffffffffffffffffff1681526020019081526020016000206000828254610a079190610dca565b9250508190555050505050565b60005481565b600060066000600260009054906101000a900473ffffffffffffffffffffffffffffffffffffffff1673ffffffffffffffffffffffffffffffffffffffff1673ffffffffffffffffffffffffffffffffffffffff16815260200190815260200160002054905090565b600073ffffffffffffffffffffffffffffffffffffffff82169050919050565b6000610aae82610a83565b9050919050565b610abe81610aa3565b82525050565b6000602082019050610ad96000830184610ab5565b92915050565b600080fd5b610aed81610aa3565b8114610af857600080fd5b50565b600081359050610b0a81610ae4565b92915050565b600060208284031215610b2657610b25610adf565b5b6000610b3484828501610afb565b91505092915050565b6000819050919050565b610b5081610b3d565b82525050565b6000602082019050610b6b6000830184610b47565b92915050565b60008115159050919050565b610b8681610b71565b82525050565b6000602082019050610ba16000830184610b7d565b92915050565b600081519050919050565b600082825260208201905092915050565b60005b83811015610be1578082015181840152602081019050610bc6565b83811115610bf0576000848401525b50505050565b6000601f19601f8301169050919050565b6000610c1282610ba7565b610c1c8185610bb2565b9350610c2c818560208601610bc3565b610c3581610bf6565b840191505092915050565b60006020820190508181036000830152610c5a8184610c07565b905092915050565b610c6b81610b3d565b8114610c7657600080fd5b50565b600081359050610c8881610c62565b92915050565b60008060408385031215610ca557610ca4610adf565b5b6000610cb385828601610c79565b9250506020610cc485828601610afb565b9150509250929050565b600060208284031215610ce457610ce3610adf565b5b6000610cf284828501610c79565b91505092915050565b7f4e487b7100000000000000000000000000000000000000000000000000000000600052601160045260246000fd5b6000610d3582610b3d565b9150610d4083610b3d565b925082821015610d5357610d52610cfb565b5b828203905092915050565b7f706c65617365207761697420666f722031206d696e7574657300000000000000600082015250565b6000610d94601983610bb2565b9150610d9f82610d5e565b602082019050919050565b60006020820190508181036000830152610dc381610d87565b9050919050565b6000610dd582610b3d565b9150610de083610b3d565b9250827fffffffffffffffffffffffffffffffffffffffffffffffffffffffffffffffff03821115610e1557610e14610cfb565b5b828201905092915050565b7f506c65617365207761697420666f72207468652073616c6520746f2074616b6560008201527f206f666600000000000000000000000000000000000000000000000000000000602082015250565b6000610e7c602483610bb2565b9150610e8782610e20565b604082019050919050565b60006020820190508181036000830152610eab81610e6f565b9050919050565b7f636865636b2069662061646d696e206861766520656e6f75676820746f6b656e60008201527f7300000000000000000000000000000000000000000000000000000000000000602082015250565b6000610f0e602183610bb2565b9150610f1982610eb2565b604082019050919050565b60006020820190508181036000830152610f3d81610f01565b9050919050565b7f4e487b7100000000000000000000000000000000000000000000000000000000600052601260045260246000fd5b6000610f7e82610b3d565b9150610f8983610b3d565b925082610f9957610f98610f44565b5b82820490509291505056fea264697066735822122080e36910dfdaacd404e61ef5a853cd3b77d337a3ae8ce09621fdeeb1dba8b54264736f6c634300080b0033",
  "linkReferences": {},
  "deployedLinkReferences": {}
}